S01500004772616E756C617253796E74682E73726563BD
S11300000C9434030C9451030C9451030C94510339
S11300100C9451030C9451030C9451030C9451030C
S11300200C9451030C94CC050C9451030C9451037F
S11300300C9451030C9451030C9451030C945103EC
S11300400C9451030C9451030C9451030C945103DC
S11300500C9451030C949E050C9451030C9451037D
S11300600C9451030C94510300000000010101029F
S113007002030405050607090A0B0C0E0F101214DF
S11300801517191B1D1F212325272A2C2E31333622
S1130090383B3E404346494C4E5154575A5D606389
S11300A066696C6F7376797C7F8285888B8F929575
S11300B0989B9EA1A4A7AAADB0B2B5B8BBBEC0C35D
S11300C0C6C8CBCDD0D2D4D7D9DBDDDFE1E3E5E7B9
S11300D0E9EAECEEEFF0F2F3F4F5F7F8F9F9FAFBEC
S11300E0FCFCFDFDFDFEFEFEFEFEFEFEFDFDFDFC38
S11300F0FCFBFAF9F9F8F7F5F4F3F2F0EFEEECEAB9
S1130100E9E7E5E3E1DFDDDBD9D7D4D2D0CDCBC855
S1130110C6C3C0BEBBB8B5B2B0ADAAA7A4A19E9BCE
S11301209895928F8B8885827F7C7976736F6C69C2
S11301306663605D5A5754514E4C494643403E3BBA
S1130140383633312E2C2A272523211F1D1B19173E
S1130150151412100F0E0C0B0A09070605050403EB
S113016002020101010000008081838587898B8D53
S113017090929496989A9D9FA1A4A6A8AAADAFB177
S1130180B3B5B7B9BBBDBFC1C3C5C6C8CACCCED051
S1130190D2D5D7D9DCDEE0E3E5E8EAEDEFF1F4F619
S11301A0F8F9FBFCFDFEFFFFFFFFFEFEFDFBFAF886
S11301B0F7F5F3F0EEECE9E7E4E2DFDDDAD8D6D4E4
S11301C0D1CFCDCBC9C7C5C4C2C0BEBCBAB8B6B402
S11301D0B2B0AEABA9A7A5A2A09E9C999795939106
S11301E08E8C8A88868482807F7D7B797775737113
S11301F06E6C6A686663615F5D5A585654514F4D20
S11302004B49474543413F3D3B3A38363432302E23
S11302102B29272522201D1B181613110F0C0A0841
S1130220070504020101000000000102030406079F
S1130230090B0E101215171A1C1F212326282A2D0C
S11302402F31333537393A3C3E40424446484A4CD4
S11302504E50525557595B5E60626567696B6D6FAE
S1130260727476787A7C7E7F57575757575656550F
S1130270545351504E4D4B494745444241403F3EF3
S11302803D3D3D3D3D3D3D3D3D3D3D3D3C3C3B39A2
S113029038373533312F2E2C2A2927262525242497
S11302A024242525262627272727272726252322F2
S11302B0201E1C1A181614131110100F0F101112EF
S11302C0131517181A1C1D1E1E1F1E1D1C1A181587
S11302D0120F0C0806030100000103060B1118217C
S11302E02B3642505E6C7B8A99A7B5C2CFDAE3EC19
S11302F0F3F8FCFEFFFFFDFAF6F2EDE8E2DCD7D1FD
S1130300CCC8C4C1BEBCBAB9B9B9B9B9BABABBBB15
S1130310BBBBBABAB8B7B5B3B0ADABA8A5A29F9DE5
S11303209B99979694949393939393939393939382
S11303309291908F8E8C8A88868482807E7C7A7952
S1130340777675757474747373737373737372726D
S113035071706F6D6C6A68666462615F5D5C5B5A44
S11303605958585757575757A8A8A8A8A8A9A9AA89
S1130370ABACAEAFB1B2B4B6B8BABBBDBEBFC0C110
S1130380C2C2C2C2C2C2C2C2C2C2C2C2C3C3C4C641
S1130390C7C8CACCCED0D1D3D5D6D8D9DADADBDB2C
S11303A0DBDBDADAD9D9D8D8D8D8D8D8D9DADCDDB1
S11303B0DFE1E3E5E7E9EBECEEEFEFF0F0EFEEED94
S11303C0ECEAE8E7E5E3E2E1E1E0E1E2E3E5E7EADC
S11303D0EDF0F3F7F9FCFEFFFFFEFCF9F4EEE7DEC7
S11303E0D4C9BDAFA193847566584A3D30251C130A
S11303F00C07030100000205090D12171D23282E06
S113040033373B3E414345464646464645454444CC
S11304104444454547484A4C4F5254575A5D6062DC
S1130420646668696B6B6C6C6C6C6C6C6C6C6C6C1F
S11304306D6E6F7071737577797B7D7F818385862F
S113044088898A8A8B8B8B8C8C8C8C8C8C8C8D8DF4
S11304508E8F9092939597999B9D9EA0A2A3A4A5FD
S1130460A6A7A7A8A8A8A8A87F8D9AA7B4C0CBD5EB
S1130470DEE6EDF3F7FBFDFFFFFFFDFBF9F6F3F01E
S1130480EDEAE8E5E3E2E0E0E0E0E1E2E3E5E7E924
S1130490EBEDEFF0F2F3F4F4F4F4F3F3F1F0EEED4A
S11304A0EBE9E8E6E5E4E3E3E3E3E4E4E6E7E8EAEA
S11304B0ECEEEFF1F2F3F4F4F4F4F3F2F1EFEEEC2A
S11304C0EAE8E6E4E2E1E0E0E0E0E1E2E4E6E9ECE7
S11304D0EFF2F5F8FAFCFEFFFFFEFCF9F5F0EAE2B4
S11304E0D9D0C5BAAEA19486796B5E51453A2F2610
S11304F01D150F0A0603010000010305070A0D106C
S11305001316191B1D1E1F1F1F1F1E1D1B19171538
S11305101311100E0D0C0B0B0B0B0C0D0E101113F5
S1130520151718191B1B1C1C1C1C1B1A1917161435
S113053012110F0E0C0C0B0B0B0B0C0D0F101214D5
S113054016181A1C1D1E1F1F1F1F1D1C1A171512FB
S11305500F0C090604020000000204080C12192101
S11305602A343F4B5865727F0000000000000000F1
S11305700000000000000000000000000000000077
S11305800000000000000000000000000000000067
S11305900000000000000000000000000000000057
S11305A00000000000000000000000000000000047
S11305B00000000000000000000000000000000037
S11305C00000000000000000000000000000000027
S11305D00000000000000000000000000000000017
S11305E00000000000000000000000000000000007
S11305F000000000000000000000000000000000F7
S113060000000000000000000000000000000000E6
S113061000000000000000000000000000000000D6
S113062000000000000000000000000000000000C6
S113063000000000000000000000000000000000B6
S113064000000000000000000000000000000000A6
S11306500000000000000000000000000000000096
S1130660000000000000000011241FBECFEFD8E0FE
S1130670DEBFCDBF12E0A0E0B1E0E8ECFFE002C0D5
S113068005900D92AA37B107D9F722E0AAE7B2E0A4
S113069001C01D92AF3CB207E1F70E949B050C9488
S11306A0E2070C9400008FE080937E0082E8809340
S11306B07A000895E1EBF0E080818160808380819D
S11306C08D7F808380818B7F8083A0EBB0E08C91D1
S11306D08F7B8C938C9180688C938C9181608C93AC
S11306E08C918D7F8C938081877F808308954F9236
S11306F05F926F927F928F929F92AF92BF92CF92AE
S1130700DF92EF92FF920F931F93CF93DF9300D06A
S113071000D0CDB7DEB780E09DE8ACE8BAE78093BF
S11307207E0290937F02A0938002B093810281E0C5
S113073090E09C838B831A82198289809A80AB8093
S1130740BC80282D392D4A2D5B2D60E070E080E0BF
S113075090E000E10E949C07A12C0F2EFDE8BF2E23
S1130760F02D0F2EFCE8CF2EF02D0F2EFAE7DF2E02
S1130770F02DE12CF12C00E010E00E943F072093C3
S11307807A0230937B0240937C0250937D0280E096
S113079091E09C838B8389809A80AB80BC80282DD8
S11307A0392D4A2D5B2D60E070E080E090E000E19F
S11307B00E949C07A12C0F2EFDE8BF2EF02D0F2EBA
S11307C0FCE8CF2EF02D0F2EFAE7DF2EF02DE12CD2
S11307D0F12C00E00E943F07422E532E642E752E0A
S11307E0322F30938202509283026092840270927C
S11307F08502EAEBF2E00F2EF0E78F2EF3E09F2E56
S1130800F02D93828282118210820091BA0210919B
S1130810BB022091BC023091BD02A02EB12EC22E8B
S1130820D32E00E010E0242D352D462D572D60E009
S113083070E080E090E00E94E40600E10E94B707C7
S1130840822F932FA42FB52F8093AA029093AB02EB
S1130850A093AC02B093AD02E9E9F2E09382828204
S1130860118210820091990210919A0220919B02A8
S113087030919C02A02EB12EC22ED32E00E010E0A7
S1130880242D352D462D572D60E070E080E090E05A
S11308900E94E40600E10E94B707822F932FA42F41
S11308A0B52F8093910290939202A0939302B093F8
S11308B094020E9453030E945A0390910A012091CA
S11308C0A6024091A50250E0420F511D490F511D4F
S11308D08091A40290E09C01220F331F820F931F8A
S11308E09C01220F331F220F331FCA01820F931F53
S11308F0883591057CF0F89480E89BE1A2E2B0E0B1
S11309008093AA029093AB02A093AC02B093AD0281
S113091078942DC0F89440910A013091A602209158
S1130920A5028091A40290E0FC01EE0FFF1F8E0F40
S11309309F1FFC01EE0FFF1FEE0FFF1FE40FF11DC1
S1130940E30FF11DE20FF11DEE0FFF1FEE0FFF1F6E
S1130950E55FFE4F80819181A281B3818093AA02D9
S11309609093AB02A093AC02B093AD027894209123
S1130970A7028091A8029091A902820F911D47E2DB
S1130980489F9001499F300D1124442737FD40951D
S1130990542FF8946091AA027091AB028091AC023A
S11309A09091AD020E94C9068C01332717FD309542
S11309B0232F8091AA029091AB02A091AC02B09136
S11309C0AD02800F911FA21FB31F8093AA029093C0
S11309D0AB02A093AC02B093AD0278949091050160
S11309E020918F0240918E0250E0420F511D490F19
S11309F0511D80918D0290E09C01220F331F820FC4
S1130A00931F9C01220F331F220F331FCA01820F31
S1130A10931F883591057CF0F89480E89BE1A2E26D
S1130A20B0E08093910290939202A0939302B093CA
S1130A30940278942DC0F8944091050130918F026E
S1130A4020918E0280918D0290E0FC01EE0FFF1F39
S1130A508E0F9F1FFC01EE0FFF1FEE0FFF1FE40F11
S1130A60F11DE30FF11DE20FF11DEE0FFF1FEE0F5D
S1130A70FF1FE55FFE4F80819181A281B381809346
S1130A80910290939202A0939302B093940278946B
S1130A90209190028091070190910801820F911D8D
S1130AA047E2489F9001499F300D1124442737FDA8
S1130AB04095542FF8946091910270919202809124
S1130AC09302909194020E94C9068C01332717FD6A
S1130AD03095232F8091910290919202A0919302DC
S1130AE0B0919402800F911FA21FB31F80939102B3
S1130AF090939202A0939302B09394027894239AD1
S1130B00E0E7F0E080818160808378940F900F901B
S1130B100F900F90DF91CF911F910F91FF90EF9065
S1130B20DF90CF90BF90AF909F908F907F906F9009
S1130B305F904F9008950E947703FFCF1F920F920A
S1130B400FB60F9211242F938F939F93EF93FF93DC
S1130B502091CE02E22FF0E080917800909179000C
S1130B60EE0FFF1FEA53FD4F918380832F5F2430E4
S1130B7018F42093CE0202C01092CE028091CE02CD
S1130B8080937C00FF91EF919F918F912F910F9013
S1130B900FBE0F901F9018951F920F920FB60F92D1
S1130BA011242F933F934F935F936F937F938F936E
S1130BB09F93AF93BF93EF93FF93CF93DF9300D0B3
S1130BC0CDB7DEB780910401882309F4CDC04091EC
S1130BD0BE025091BF026091C0027091C102809127
S1130BE0C2029091C302A091C402B091C502840FC5
S1130BF0951FA61FB71F8093C2029093C302A093B0
S1130C00C402B093C50284179507A607B70780F4FA
S1130C101092B6021092B7021092B8021092B90262
S1130C2010929502109296021092970210929802D6
S1130C308091AA029091AB02A091AC02B091AD0256
S1130C40E6EBF2E04081518162817381840F951F4C
S1130C50A61FB71F80839183A283B383809103016E
S1130C60E82FF0E0EE0FFF1FE559FD4F2091A3029E
S1130C709091B802920F0190F081E02DE90FF11DDF
S1130C80E859FF4FE491F0E0F093A202E093A1024F
S1130C90853041F480910001909101019093A2026A
S1130CA08093A1028091910290919202A09193026B
S1130CB0B0919402409195025091960260919702EE
S1130CC070919802840F951FA61FB71F80939502F9
S1130CD090939602A0939702B0939802A091020178
S1130CE0A530C9F080918C02E0919702F0E0E80F02
S1130CF0F11DB0E0AA0FBB1FA559BD4F8D919C916A
S1130D00E80FF91FE859FF4FE491F0E0F0938B02EC
S1130D10E0938A0208C080910001909101019093B0
S1130D208B0280938A0240910901E1EAF2E020817A
S1130D303181429FC001439F900D11249183808390
S1130D4060910601EAE8F2E040815181649F9001DC
S1130D50659F300D112431832083820F931F9A8362
S1130D6089838A818093B3000F900F90DF91CF9194
S1130D70FF91EF91BF91AF919F918F917F916F916F
S1130D805F914F913F912F910F900FBE0F901F9045
S1130D901895DB018F939F930E94D906BF91AF9161
S1130DA0A29F800D911DA39F900DB29F900D1124C1
S1130DB008950E94D307A59F900DB49F900DA49F02
S1130DC0800D911D11240895DF93CF931F930F93EA
S1130DD09A9DF02D219FF00D8B9DF00D8A9DE02DA5
S1130DE0F10D039FF00D029FE00DF11D4E9DE00DEE
S1130DF0F11D5E9DF00D4F9DF00D7F936F93BF929B
S1130E00AF925F934F93D5010E94D3078B01AC013E
S1130E10D7010E94D307EB01E80FF91FD6010E9406
S1130E2034072F913F91D6010E94D307C60FD71FD5
S1130E30E81FF91FAF91BF910E9434072F913F9192
S1130E400E94D307C60FD71FE81FF91FD6010E94BF
S1130E50D307E60FF71F9801BE01CF0111240F91AC
S1130E601F91CF91DF9108950E94D307460F571F1A
S1130E70C81FD91F08F431960895689401C0E894F6
S1130E808F929F92CF93DF930E944B07DF91CF9174
S1130E909F908F90089588249924F401E401B0E48C
S1130EA09F93AA279A158B049C04ED05FE05CF0594
S1130EB0D007A10798F4AD2FDC2FCF2FFE2FE92DFB
S1130EC0982C892E982F872F762F652F542F432FF8
S1130ED0322F2227B85031F7BF9127C01B2EBF9164
S1130EE0BB27220F331F441F551F661F771F881F00
S1130EF0991F881C991CEE1FFF1FCC1FDD1FAA1F02
S1130F00BB1F8A149B04EC05FD05CE05DF05A00775
S1130F10B10748F08A189B08EC09FD09CE09DF09DE
S1130F20A00BB10B21601A94E1F62EF49401AF01E9
S1130F30BE01CD01000C08950F93083090F0982F56
S1130F40872F762F652F542F432F322F22270850B7
S1130F50F4CF220F331F441F551F661F771F881FAE
S1130F60991F0A95B2F70F91089597FB10F81694FC
S1130F7000080F93083098F00850232F342F452F82
S1130F80562F672F782F892F902DF4CF059497959E
S1130F9087957795679557954795379527950A953A
S1130FA0AAF70F910895A29FB001B39FC001A39F18
S1130FB0700D811D1124911DB29F700D811D11248E
S10B0FC0911D0895F894FFCF80
S1130FC8E1AC020201308001007F305D390000C3CA
S1130FD83C0000634000003744000045480000928C
S1130FE84C00001F510000F25500000E5B00007910
S1130FF860000035660000496C0000BA7200008683
S1131008790000C68000006E8800008A90000024E1
S11310189900003EA20000E4AB00001CB60000F2F8
S1131028C000006ACC000092D8000074E500000CEF
S1131038F300008C010100DC1001001421010048B8
S11310483201007C440100C8570100386C0100E4F7
S1131058810100D498010024B10100E8CA010018F4
S1131068E6010018030200B8210200284202009099
S1131078640200F888020090AF020070D80200C829
S1131088030300A831030048620300D0950300302D
S1131098CC0300300604007043040050840400208C
S11310A8C90400F0110500205F0500E0B0050090B8
S11310B80706005063060090C40600A02B070060D2
S11310C8980700600C0800E0860800A008090040A2
S11310D8920900E0230A0040BE0A00C0610B002008
S11310E80F0C00A0C60C0020890D0040570E00C04C
S11310F8300F00C0181000C00D11004011120080FC
S1131108241300C0471400807C150080C3160040D7
S11311181E1800408D190040121B0080AE1C008070
S1131128611E0080312000801B22000000000100A5
S10D1138020003000400000005009B
S9030000FC
